{
  normal: '0x09b4713481b0f90ae10e718e7ff7e1b18bb7f2f62354f33138a73b30f42acd0b',
  unknow: []
}
Legacy {
  jsonrpc: '2.0',
  result: {
    blockHash: '0x30f9cb8a5da939a923243922732b0075803df621df33cfd6c354973ed153c8d1',
    blockNumber: '0x58b1140',
    from: '0x7107142636c85c549690b1aca12bdb8052d26ae6',
    gas: '0x7434',
    gasPrice: '0x0',
    hash: '0x09b4713481b0f90ae10e718e7ff7e1b18bb7f2f62354f33138a73b30f42acd0b',
    input: '0xbede39b500000000000000000000000000000000000000000000000000000008c8989fb6',
    nonce: '0x9b0b7',
    to: '0x420000000000000000000000000000000000000f',
    transactionIndex: '0x0',
    value: '0x0',
    v: '0x38',
    r: '0x26bc229105b779e1f68f665f533e4dbf723a346cad839b3e3c0c938e262569d3',
    s: '0x521c9ac46f0aee7eb1bbc134c713138a0947d05c171b1da6e30d2ae236923021',
    queueOrigin: 'sequencer',
    l1TxOrigin: null,
    l1BlockNumber: '0x104e332',
    l1Timestamp: '0x64430730',
    index: '0x58b113f',
    queueIndex: null,
    rawTransaction: '0xf8868309b0b78082743494420000000000000000000000000000000000000f80a4bede39b500000000000000000000000000000000000000000000000000000008c8989fb638a026bc229105b779e1f68f665f5
33e4dbf723a346cad839b3e3c0c938e262569d3a0521c9ac46f0aee7eb1bbc134c713138a0947d05c171b1da6e30d2ae236923021'
  }
}
